:020000022000DC
:103000000000012051960200799602007B96020092
:103010007D9602007F96020081960200000000006B
:103020000000000000000000000000008396020085
:103030008596020000000000879602008996020033
:103040004D6A02008B960200856602000D62020046
:103050008B9602008B9602004D5A02008B9602005E
:103060008B9602008B9602008B9602008B960200D4
:103070008B9602008B9602008B9602008B960200C4
:103080008B960200994202008B9602008B960200FA
:10309000394302008B960200FDAC02008B960200C1
:1030A0008B9602008B9602008B9602008B96020094
:1030B0008B9602008B9602000000000000000000CA
:1030C0008B9602008B9602008B9602008B96020074
:1030D0008B9602008B9602008B9602000000000087
:1030E00000000000000000000000000000000000E0
:1030F00000000000000000000000000000000000D0
:1031000000000000000000000000000000000000BF
:1031100000000000000000000000000000000000AF
:10312000000000000000000000000000000000009F
:10313000000000000000000000000000000000008F
:10314000000000000000000000000000000000007F
:10315000000000000000000000000000000000006F
:10316000000000000000000000000000000000005F
:10317000000000000000000000000000000000004F
:10318000000000000000000000000000000000003F
:10319000000000000000000000000000000000002F
:1031A000000000000000000000000000000000001F
:1031B000000000000000000000000000000000000F
:1031C00000000000000000000000000000000000FF
:1031D00000000000000000000000000000000000EF
:1031E00000000000000000000000000000000000DF
:1031F00000000000000000000000000000000000CF
:1032000010B5054C237833B9044B13B10448AFF320
:1032100000800123237010BD002400200000000066
:10322000D0BB020008B5034B1BB103490348AFF301
:10323000008008BD0000000004240020D0BB020074
:10324000154B002B08BF134B9D46A3F5803A002178
:103250008B460F461348144A121A07F008FF0F4B0B
:10326000002B00D098470E4B002B00D09847002031
:10327000002104000D000D48002802D00C48AFF3D7
:10328000008007F0A5FE2000290004F067FD07F08C
:103290008BFE00BF000008000000012000000000BD
:1032A0000000000000240020C833002000000000BF
:1032B00000000000F0B595B0002415460F46084602
:1032C0001E4602F039F9384623460895082205A91A
:1032D0001A9D09960D950A948DF82C400C9402F0D5
:1032E00091F99DF814308DF81040DDE9061003F0D7
:1032F0000302012A0290ADF80C102BD0022A04D050
:10330000384602F029F915B0F0BDBDF81650C3F3E8
:10331000C202C3F38003AD098DF80E208DF80F3083
:103320000826082D2C4628BF0824334622460EA91D
:10333000384602F067F92D1B214608AB02AA0EA8F9
:10334000264400F089FD002DEBD1384602F004F947
:1033500015B0F0BDBDF814500598C5F38315C3F33F
:10336000C20CAA000EA9C3F38004C0F3952608235B
:1033700038468DF80EC08DF80F4002F043F908ABC7
:103380002A4630460EA9009302AB00F0CDFC384629
:1033900002F0E2F815B0F0BD014B01221A7070473F
:1033A00060240020704700BF70B50E4D0E4888B0F5
:1033B00003F03AF80FCD6C460FC495E80F0008AD46
:1033C000062645F8206D84E80F00294600220648AD
:1033D00002F042FF08B100F043FE044B00221A70D5
:1033E00008B070BDC4B00200802100201C24002061
:1033F00000B583B0044B0093044A4023FFF75AFF03
:1034000003B05DF804FB00BF11340200202400204B
:1034100010B5094C09480023D2B2237003F088F894
:1034200030B9074B1B7813B12378002BFCD010BDAB
:1034300000F016FEF5E700BF602400208021002088
:103440001C24002070B50D4D0FCD88B06C460FC404
:1034500095E80F0008AD062645F8206D84E80F00BA
:103460002946074A074802F0F7FE08B100F0F8FDC8
:10347000054B01221A7008B070BD00BFC4B0020035
:1034800099330200802100201C24002010B5054C37
:10349000FFF7D8FF2046042100F004FC01236372EB
:1034A00010BD00BF882100202DE9F047824C002389
:1034B00084B0C4F81834BFF34F8FD4E9017607EA1B
:1034C0000601CB1C04EB830214F8233098073D4619
:1034D0000FD1138852889B0903EB921301331D44CB
:1034E00006EA0501CB1C04EB830214F823309B078A
:1034F000EFD004EB81016A1CCB680193324004EBEE
:10350000820203F00303D2680292022B05F1020843
:103510000FD0012B75D0032B06D02068C01B18BF1D
:10352000012004B0BDE8F087D4F818040028F4D1D5
:10353000F7E7BDF8063061484FEA93194D46502D24
:1035400028BF502565F38F1305F10801ADF806304B
:1035500001F0B0FF0746002851D026EA080A0AF118
:10356000010A01F0E9FF4FEA8A0A0023082201A9B3
:10357000384602F019F8554540F29080EBB2BAF1A6
:10358000000F00F0848006EA0801A3EB0A03033170
:1035900004EB8101DDB252460823384602F004F8FC
:1035A0002A460AF108034649384601F0FDFF09F1B1
:1035B000030908EB9909D4F81834002B62D1D4F828
:1035C000105455B16B7A28463946002B56D02B68DB
:1035D0001B6898476D68002DF4D1384601F0BCFF98
:1035E00004A8002300F80D3D01F040FBD4F8183486
:1035F0000BB9C4F804909DF8030001F05DFB676807
:103600008BE7BDF804302D48C3F38311062928BF8A
:10361000062161F3891302318900ADF8043001F00D
:1036200049FF07460028EAD001F086FF0023082260
:1036300001A9384601F0B8FFBDF8043013F4707FDB
:1036400037D06FF0010AAAEB050A082506EA08013F
:1036500003312B46042204EB8101384601F0A4FF1C
:10366000BDF8043008F101090AEB0902C3F3831322
:103670009A42C84605F10405E8D39CE76D68002D21
:10368000A0D1AAE7384601F067FF676845E72A46F8
:1036900008230B49384601F087FF88E706EA08014E
:1036A000033104EB81012A460823384601F07CFFF0
:1036B0007DE7C1467FE700BF64240020F0B0020030
:1036C0007024002008B50E4B0E480022FF21C3F8DD
:1036D00018249960C3E90022C3F8142483F81C2439
:1036E00001F0E6FE58B90849084BC91AC90806D0C6
:1036F000074A034622F80C3B01339942FAD108BD30
:1037000064240020F0B002005CBC020004BC020093
:103710007C23002021B9134A02EBC00000687047E7
:1037200030B411490F4C091BC90816D00F4B5A88E9
:10373000824218BF002205D111E0DD89854203F1E4
:103740000C0305D001329142F7D1002030BC704704
:1037500004EBC200006830BC70470846F6E720461C
:10376000F8E700BF04BC02005CBC02007C23002020
:10377000094B013903EBC00003290BD8DFE801F046
:1037800002080604022070474079704700797047AC
:10379000042070470020704704BC02002DE9F04F60
:1037A00089B008AB002703F80D7D604C02901846E5
:1037B000A3680193039101F059FAD4E901E0D4F828
:1037C000008000EB0E030133A3EB0803032B60D84A
:1037D00000F1010AAAEB080A04F5836C04F214460E
:1037E00000EA0E0901255CE8003F43EA05024CE8C7
:1037F000002191F0000FF6D156E8003F43EA0502A0
:1038000046E8002191F0000FF6D109F1030304EB23
:10381000830114F823309B07CB46724610D10B88E6
:1038200049889B0903EB911301331A4400EA020B08
:103830000BF1030304EB830114F823309B07EED054
:1038400004EB8B0B0232DBF80C30059303F003031F
:10385000012B65D0022B05D1BDF816309B0903332F
:1038600002EB930256E8003F03EA070146E8001B1B
:103870009BF0000FF6D143B10AEB0203032B626009
:1038800007D8964600EA0209ADE70AEB0E03032BC0
:10389000A9D908EA0000C31C08F1020114F823208A
:1038A0009DF8130042F0030204F82320216001F088
:1038B00003FA019A029908F10103134004EB830310
:1038C00002EA080808F103080A0CDA6014F8283044
:1038D0000A0962F3820361F3C50304F8283034F85F
:1038E0002830039A6FF3891324F8283054F82830CD
:1038F00062F39F231A46012161F3010244F8283044
:1039000004F8282094F81C341BB906E0FFF7CCFD1E
:1039100018B1D4E900329A42F8D109B0BDE8F08F6D
:10392000BDF81430C3F383131A449BE764240020CA
:103930002DE9F04F89B008AB002703F80D7D644CEA
:1039400001901846A3680093CDE9021201F08EF9A8
:10395000D4E901E0D4F8008000EB0E030133A3EBBF
:103960000803042B60D800F1010AAAEB080A04F549
:10397000836C04F2144600EA0E0901255CE8003F5E
:1039800043EA05024CE8002191F0000FF6D156E819
:10399000003F43EA050246E8002191F0000FF6D10E
:1039A00009F1030304EB830114F823309B07CB4692
:1039B000724610D10B8849889B0903EB91130133A0
:1039C0001A4400EA020B0BF1030304EB830114F821
:1039D00023309B07EED004EB8B0B0232DBF80C306C
:1039E000059303F00303012B6CD0022B05D1BDF826
:1039F00016309B09033302EB930256E8003F03EABB
:103A0000070146E8001B9BF0000FF6D143B10AEB1B
:103A10000203042B626007D8964600EA0209ADE76C
:103A20000AEB0E03042BA9D908EA0000C31C08F115
:103A3000030114F823209DF8130042F0030204F858
:103A40002320216001F038F900990198039D08F1C5
:103A5000020208F101030A400B4004EB820204EB6E
:103A6000830301EA080808F10308010CD560D96056
:103A700014F82830020962F3820360F3C50304F8E6
:103A8000283034F82830029A012161F3891324F890
:103A9000283054F8283062F39F231A4661F301025C
:103AA00044F8283004F8282094F81C341BB906E0A8
:103AB000FFF7FAFC18B1D4E900329A42F8D109B004
:103AC000BDE8F08FBDF81430C3F383131A4494E7B4
:103AD000642400202DE9F04F8BB00AAD00276A4C1A
:103AE00005F80D7D029005932846A3680193CDE962
:103AF000031201F0BBF8D4E901E0D4F8008000EB38
:103B00000E030133A3EB0803052B60D800F1010A73
:103B1000AAEB080A04F5836C04F2144600EA0E09C5
:103B200001255CE8003F43EA05024CE8002191F0E2
:103B3000000FF6D156E8003F43EA050246E80021AF
:103B400091F0000FF6D109F1030304EB830114F89F
:103B500023309B07CB46724610D10B8849889B09BE
:103B600003EB911301331A4400EA020B0BF1030338
:103B700004EB830114F823309B07EED004EB8B0B8E
:103B80000232DBF80C30079303F00303012B74D0EF
:103B9000022B05D1BDF81E309B09033302EB9302C3
:103BA00056E8003F03EA070146E8001B9BF0000FC0
:103BB000F6D143B10AEB0203052B626007D89646A3
:103BC00000EA0209ADE70AEB0E03052BA9D908EAC2
:103BD0000000C31C08F1040114F823209DF81B0009
:103BE00042F0030204F82320216001F065F80198F7
:103BF000029D049E08F1020108F1030208F101038D
:103C000001400240034004EB810104EB820204EB1B
:103C1000830300EA0808CE6008F103080599D16023
:103C2000280CD86014F828302A0962F3820365F35F
:103C3000C50304F8283034F82830022262F38913CF
:103C400024F82830039A54F8283062F39F231A4648
:103C5000012161F3010244F8283004F8282094F887
:103C60001C341BB906E0FFF71FFC18B1D4E9003281
:103C70009A42F8D10BB0BDE8F08FBDF81C30C3F309
:103C800083131A448CE700BF64240020044BD3E95B
:103C900000239A4201D0FFF707BC0020704700BF05
:103CA0006424002030B4154DD5F81044002154B1DF
:103CB000237A8B4213D0234602E01A7A8A420ED02E
:103CC0005B68002BF9D10172D5F810347BB15B68C9
:103CD0004360D5F81034586030BC08467047013155
:103CE0000A29E4D14FF0FF31084630BC7047C5F8CF
:103CF0001004436030BC0846704700BF64240020B5
:103D000038B5084BD3F81044012583F81C543CB156
:103D10002368657220465B6898476468002CF7D179
:103D200038BD00BF642400202DE9F04784B01D4653
:103D30000C9C002394F80C802373EB7981460E468B
:103D40001746DBB1062F09D8DFE807F00430363D0F
:103D500046515E004946204601F032F8EB792BB916
:103D60002B7AEBB93649204601F02AF8204601F0BB
:103D70001BF884F80C8004B0BDE8F0872B7AA88883
:103D8000A979002B4FD12F4B53F821A00021FFF729
:103D9000C1FC524603462C49204601F011F8D1E7F8
:103DA0002A4A2B49204601F00BF8DBE732684946E6
:103DB000204601F005F8D1E74946D6E90023204620
:103DC00000F0FEFFCAE7B168D6E900232046009163
:103DD000494600F0F5FFC1E7D6E90201D6E9002324
:103DE000019100904946204600F0EAFFB6E7D6E987
:103DF0000371B068D6E900230291CDE90007494676
:103E0000204600F0DDFFA9E7D6E90410D6E900233B
:103E10000390D6E902070291CDE900074946204602
:103E200000F0CEFF9AE7FFF7A3FC0A4B084953F8CE
:103E30002020204600F0C4FFA979A888A3E700BF8E
:103E400058B102005CB1020044B1020050B102005E
:103E500040B1020008B1020008295CD82DE9F04FFA
:103E60001D46914600232A7B2B7383B099F80730B7
:103E7000019207460E46002B4ED0DFF808B1DFF85E
:103E80000881002405E03A5D013400F099FF082C18
:103E900009D0A64241462846F5D85946013400F0DB
:103EA0008FFF082CF5D13049DFF8E080DFF8E0B073
:103EB000284600F085FF002411E017F804A007F061
:103EC000ABF850445946437813F0970F14BF52464D
:103ED0002E222846013400F073FF082C08D0A64299
:103EE00041462846E9D8013400F06AFF082CF6D193
:103EF00099F8073013B999F808300BBB1B492846CD
:103F000000F05EFF284600F04FFF9DF804302B7351
:103F100003B0BDE8F08F704799F80830B9F8040095
:103F200099F8061093B9124B53F821400021FFF77E
:103F3000F1FB224603460F49284600F041FF9CE76B
:103F40000D4A0E49284600F03BFFD7E7FFF710FC6B
:103F50000B4B0A4953F82020284600F031FF99F80E
:103F60000610B9F80400DEE738B1020058B10200CB
:103F70005CB1020044B1020050B1020040B1020045
:103F800008B1020034B102002CB102004CB10200B1
:103F90003CB10200044B195C4FF0A04201238B405E
:103FA000C2F80C35704700BFD0B10200044B195C59
:103FB0004FF0A04201238B40C2F80835704700BF84
:103FC000D0B1020030B44FF0A04303224FF40035CB
:103FD0004FF480244FF400204FF48011C3F844279D
:103FE000C3F84827C3F84C27C3F85027C3F808552F
:103FF000C3F80845C3F80805C3F8081530BC704776
:1040000070B5084D2B785BB1074E00243368012151
:1040100013F8340001F086FC2B780134A342F5D864
:10402000002070BD542900207829002070B5094D6A
:104030002B7853B1084E0024336813F8340001F094
:10404000D3FC2B780134A342F6D80448BDE8704075
:1040500000F0D2BD542900207829002058290020E2
:1040600000B585B000230390194601AA44F201006F
:10407000ADF80430029300F003F805B05DF804FBDE
:1040800010B5FFF73DFEFFF701FE0028FBD1104CF5
:1040900010492088000440F00100FFF77FFB0E4B21
:1040A0001B68DB0700D5FFDE20880C49000440F0C8
:1040B0000200FFF773FBBFF34F8F0949094BCA6832
:1040C00002F4E0621343CB60BFF34F8F00BFFDE704
:1040D0007C230020D4B10200F0ED00E0E0B102004A
:1040E00000ED00E00400FA05F0B412F0030412D170
:1040F0004B1CDB000A4D0B4E0B4F34709BB213442C
:104100002B600A4E0A4D0B4B28803A6034701980A0
:104110002046F0BC704707242046F0BC704700BF23
:10412000802900207C290020842900208C2900205F
:10413000882900208A2900202DE9F0472D4F3B884F
:104140008B4282B03CD3054602A84FF0000800F82D
:10415000018D16460C4600F089FD274B274A28485A
:1041600019781378B0F800C09DF80700DBB26345FA
:1041700038BF0133C9B238BF5FFA83F8414523D055
:1041800092F800801378DFF88090DBB29C4586BF00
:104190000133DBB200235FFA88F8137000F08CFD66
:1041A000D9F800300FFA88F24FEAC20A43F83260B9
:1041B000534405B174B90020988002B0BDE8F0877F
:1041C000092002B0BDE8F08700F076FD042002B0BF
:1041D000BDE8F0870B4B38881B68294608FB003088
:1041E000224606F039FFD9F800309A440020AAF898
:1041F0000440E2E7882900208C2900207C29002047
:104200008A29002080290020842900202DE9F84FE8
:104210001B4C1C4D22782B789A4226D0DFF86CA0DC
:10422000DFF86C90184FDFF86CB04FF0000823787F
:10423000DAF800203888D9F80060DBB20FFA83FE84
:1042400002EBCE0103FB0060898852F83E309847AC
:104250002378BBF80010DBB25A1C9942D2B206D9BF
:10426000227023782A789A42E1D1BDE8F88F84F849
:10427000008022782B789A42D9D1BDE8F88F00BF10
:104280008C2900207C2900208829002084290020F6
:10429000802900208A290020F8B5204A204B0024DC
:1042A000C2F84041C2F84441C2F84841C2F84C410A
:1042B000C2F80041C2F804411B6833B31949D2F86F
:1042C00004550A68AD1A1A6825F07F45AA422746A8
:1042D0000DD8197CDE69AD1A144419B11F74D3E9E5
:1042E000052090471EB133461A68AA42F1D90E49FB
:1042F0000E4A0B7812789A4208D00D490D4A41F8BF
:1043000023404FF48013C2F80031F8BD531CDBB2D8
:10431000022B08BF00230B70EFE700BF0010014025
:10432000B02A0020AC2A0020A92A0020A82A0020B8
:10433000A02A002000E100E02DE9F04FAF48B04A8C
:10434000B04913780978D0F80090AF4889B0006878
:104350000290994200F04E810133DBB2022B08BF7C
:1043600000231370A94A52F82300A44B09EB00075D
:1043700027F07F471F60029B00252A462C46AC464B
:10438000B3B11968814200F24D81DD68C3F800C005
:10439000401A0C44D9693DB109EB040626F07F466A
:1043A000C3E90165DA611A460B460125002BE8D105
:1043B000002D40F09B81012302990693B946944B4E
:1043C000944C1B7805934FF000084B46CDF81C80A9
:1043D000CDF80C804FF0010EC1468C469B4642B38F
:1043E000D2E901651346D2698B48A6EB0B0121F097
:1043F0007F41814259D829441960002083F810E098
:10440000C3E90100D861BCF1000F72D0DCF80000F4
:1044100088425FD2664603E02868884263D22E460F
:10442000F569091A002DF7D11960DD61F361002AE1
:10443000D6D1CA46CDF804B094F8019021784FF057
:10444000000B1646894576D0084600EB400004EB89
:10445000C0004A1CA378D1B2027921708B4204BFFC
:1044600084F800B00021022A836853D0032A44D084
:10447000012AE7D11F7C002FE4D13246C6685E6076
:1044800005699D604169D960816999610599DDF887
:1044900004B0D1460029A7D03E46A6EB0B015E48EA
:1044A0005F6021F07F418142A5D9ABEB060121F08D
:1044B0007F41A94202D2691A19609EE7002183F860
:1044C00010E0C3E900119960D961BCF1000F10D070
:1044D000DCF80000411ACCF800104FF00108C3F8D6
:1044E0001CC09C467BE7401A28601960DD61F361BF
:1044F0009DE79C464FF0010871E7BCF1000FA1D089
:10450000624600231374D269002AFBD194464FF00F
:10451000010891E7BCF1000F09D06345624603D161
:1045200092E083424FD00246D0690028F9D183F847
:1045300010B0894588D1C346DDF80490D046BBF160
:10454000000F40F0D780079B002B40F01A82B8F193
:10455000000F03D02E4B9DF814201A702A4B1A68B6
:10456000039B1BB9029B9A4200F0C880002A00F00E
:10457000CC802A48214BD0F804151B68284C1568BC
:104580002678CA1A22F07F420332002E00F0A6815C
:1045900095422CBF5B199B18204823F07F43C0F83D
:1045A0004035D0F80425521A5B1A22F07F4223F0DE
:1045B0007F4303329A4200F24781154A0023137069
:1045C00009B0BDE8F08F934236D0674604931D468C
:1045D000E8692D68D06128B102682A440260217818
:1045E00094F801906745A2D00122BC46039283F85B
:1045F00010B09EE7002206920146E0E6AC2A0020B9
:10460000A82A0020A92A0020B02A0020A02A0020E1
:104610009C2A002090290020FEFF7F00001001400E
:104620009D2A0020002D40F0B081091A1960012355
:10463000B94606930299C2E60493DCF81C7037B1C0
:104640004FF00108049DC3E7CDF810C0F5E77748A7
:10465000774DC0F808E077484FF02F08006800BF9A
:1046600000BF00BF00BF00BF00BF00BF00BFA84227
:104670002FD000BF00BF00BF00BF00BF00BF00BF02
:1046800000BF00BF00BF00BF00BF00BF00BF00BF32
:1046900000BF00BF00BF00BF00BF00BF00BF00BF22
:1046A00000BF00BF00BF00BF00BF00BF00BF00BF12
:1046B00000BF00BF00BF00BF00BF00BF00BF00BF02
:1046C00000BF00BF00BF00BF00BF00BF00BF00BFF2
:1046D00000BFB8F10108C2D14FF0010A0197CDF82F
:1046E00014A0CDF81CA0D046049D71E75249029356
:1046F0000B6060E6504BC3F800C024E7069B002B1C
:104700003FF45BAF002A7FF434AF48494B4B494E2E
:10471000474C4FF480304FF400370125C3F88070C8
:10472000C1F848032F23C1F808034D6030681E46C6
:1047300000BF00BF00BF00BF00BF00BF00BF00BF81
:10474000A0422FD000BF00BF00BF00BF00BF00BF0E
:1047500000BF00BF00BF00BF00BF00BF00BF00BF61
:1047600000BF00BF00BF00BF00BF00BF00BF00BF51
:1047700000BF00BF00BF00BF00BF00BF00BF00BF41
:1047800000BF00BF00BF00BF00BF00BF00BF00BF31
:1047900000BF00BF00BF00BF00BF00BF00BF00BF21
:1047A00000BF00BF013EC3D18D6025490A6000BF34
:1047B00000BF00BF00BF00BF00BF00BF00BFA042DE
:1047C0002FD000BF00BF00BF00BF00BF00BF00BFB1
:1047D00000BF00BF00BF00BF00BF00BF00BF00BFE1
:1047E00000BF00BF00BF00BF00BF00BF00BF00BFD1
:1047F00000BF00BF00BF00BF00BF00BF00BF00BFC1
:1048000000BF00BF00BF00BF00BF00BF00BF00BFB0
:1048100000BF00BF00BF00BF00BF00BF00BF00BFA0
:1048200000BF013BC3D1074B1A70C6E60010014020
:104830000024F400A0210020B02A002000E100E0C4
:10484000AC2A00209D2A0020D0F80435514AC0F837
:104850004035126850492F2300BF00BF00BF00BF82
:1048600000BF00BF00BF00BF8A422FD000BF00BF03
:1048700000BF00BF00BF00BF00BF00BF00BF00BF40
:1048800000BF00BF00BF00BF00BF00BF00BF00BF30
:1048900000BF00BF00BF00BF00BF00BF00BF00BF20
:1048A00000BF00BF00BF00BF00BF00BF00BF00BF10
:1048B00000BF00BF00BF00BF00BF00BF00BF00BF00
:1048C00000BF00BF00BF00BF00BF00BF013BC3D19E
:1048D000324B4FF40032C3F800216EE62F4EDFF862
:1048E000B4E0DFF8B4C04FF48037C0F84473C0F8C8
:1048F00004734FF40037C6F88071376001260660F4
:10490000DEF800702F2000BF00BF00BF00BF00BF57
:1049100000BF00BF00BF67452FD000BF00BF00BF72
:1049200000BF00BF00BF00BF00BF00BF00BF00BF8F
:1049300000BF00BF00BF00BF00BF00BF00BF00BF7F
:1049400000BF00BF00BF00BF00BF00BF00BF00BF6F
:1049500000BF00BF00BF00BF00BF00BF00BF00BF5F
:1049600000BF00BF00BF00BF00BF00BF00BF00BF4F
:1049700000BF00BF00BF00BF00BF0138C3D1267019
:1049800006E6074BC3F80090E1E5064C029323606E
:104990004BE600BFA02100200024F40000E100E06D
:1049A000AC2A0020B02A0020F0B4554B554A564E90
:1049B000564C4FF480304FF400310125C2F880107E
:1049C000C3F848032F21C3F808035D6030680E4622
:1049D00000BF00BF00BF00BF00BF00BF00BF00BFDF
:1049E000A0422FD000BF00BF00BF00BF00BF00BF6C
:1049F00000BF00BF00BF00BF00BF00BF00BF00BFBF
:104A000000BF00BF00BF00BF00BF00BF00BF00BFAE
:104A100000BF00BF00BF00BF00BF00BF00BF00BF9E
:104A200000BF00BF00BF00BF00BF00BF00BF00BF8E
:104A300000BF00BF00BF00BF00BF00BF00BF00BF7E
:104A400000BF00BF013EC3D19D6000BF00BF00BFDB
:104A500000BF00BF00BF00BF00BFA0422FD000BFFB
:104A600000BF00BF00BF00BF00BF00BF00BF00BF4E
:104A700000BF00BF00BF00BF00BF00BF00BF00BF3E
:104A800000BF00BF00BF00BF00BF00BF00BF00BF2E
:104A900000BF00BF00BF00BF00BF00BF00BF00BF1E
:104AA00000BF00BF00BF00BF00BF00BF00BF00BF0E
:104AB00000BF00BF00BF00BF00BF00BF00BF013983
:104AC000C3D1134E134C1449144D154F00203070B0
:104AD000206008704FF480140B26E0212880AE700F
:104AE0003870104DC2F8804182F814131460C3F876
:104AF000080582F81113D3F804352B60F0BC704719
:104B00000010014000E100E0A02100200024F4009A
:104B10009D2A0020B02A0020A82A002090290020E9
:104B2000A92A0020AC2A0020074B9B784BB132B158
:104B300028B10368187C20B959745A61704707205E
:104B400070470820704700BF902900202DE9F047EA
:104B5000264CA37882B0002B3CD000283AD0042900
:104B60003CD94369002B35D0814602A899F8113011
:104B70000026012B00F8016D0CBF8846B046174691
:104B80008A4600F073F86378A17822789DF80700D0
:104B90005D1CEDB2A94208BF3546AA4222D003EB04
:104BA000430304EBC3030121114AC3F808901971B0
:104BB000D2F804256570C3E9032AC3E9058700F02C
:104BC0007BF80C4B4FF480123046C3F8002102B042
:104BD000BDE8F087082002B0BDE8F087072002B0EA
:104BE000BDE8F08700F068F80420F0E79029002085
:104BF0000010014000E100E0F0B51A4CA37883B04A
:104C000043B338B343692BB3064602A8002500F826
:104C1000015D357400F02AF86278A77821789DF854
:104C20000700531CDBB29F4208BF2B46994214D0A9
:104C300002EB420204EBC202022196601171637022
:104C400000F03AF8084B4FF480122846C3F80021D0
:104C500003B0F0BD082003B0F0BD00F02DF8042033
:104C6000F9E700BF9029002000E100E070B4EFF305
:104C7000108472B60D4B9A68AAB90D490D4E0125E4
:104C80009D60D1F8805035401D60C1F88060D1F83A
:104C900084505D604FF0FF33C1F88430027004B976
:104CA00062B670BC704701230370F8E77C2D0020CA
:104CB00000E100E0FC06FFBD094B9A687AB170B9CB
:104CC00010B4EFF3108272B606491C680C605C6881
:104CD0004C60986002B962B65DF8044B704770474B
:104CE0007C2D002000E100E0B8B130B4D0E9011221
:104CF000521A0468D2B2531E2160DBB242B101687D
:104D00000A685C1E551C0D601370E3B2FF2BF6D1D0
:104D100003680020187130BC70470E20704700BF38
:104D2000F0B583B002AB002503F8015D04461846D8
:104D3000FFF79CFFD4E900311A688A4210D9511E4E
:104D400019602168A3680F6812F8015C0A79268A45
:104D5000E068DB1BDBB29A4206FB050538BF0B712E
:104D60009DF80700FFF7A8FF284603B0F0BD00BF7D
:104D700030B583B002AB002203F8012D054618467A
:104D80000C46FFF773FF2A681368591C1160E96825
:104D90002A8A641AB4FBF2F41C709DF80700FFF72E
:104DA0008BFF03B030BD00BF826842B110B504462E
:104DB00043690168006998470023A36010BD7047EC
:104DC0000EB400B582B0039929B102AA04AB42F82F
:104DD000043D00F08BF802B05DF804EB03B07047BF
:104DE0002DE9F84F88469045174605461E46DDE9F1
:104DF0000AB175D343464FF00109B3FBF7F39F4265
:104E000009F10109F9D9B14538BFB14611F0010ADC
:104E1000AA6802D1BBF1000F43D1012402E0013E98
:104E200007FB04F4012EFAD8B8FBF4F18F42F7D94E
:104E30002D4E05E0B4FBF7F4A4B1B8FBF4F1AA6879
:104E4000705C531CAB602B689854D5E901329A42D0
:104E500004FB1188EED32846FFF7A6FFB4FBF7F456
:104E6000002CEAD1BAF1000F15D0BBF1000F12D01F
:104E7000CB4510D92024AB682A68591CA960D454AA
:104E8000D5E901329A420BF1FF3B06D2BBF1000F8C
:104E900001D0CB45EFD1BDE8F88F2846FFF784FF5E
:104EA000F4E78B0717D42024CB45B6D92B68511CC7
:104EB000A9609C54D5E901329A420BF1FF3B05D21F
:104EC000BBF1000FA9D0CB45F0D1A6E72846FFF7EC
:104ED0006BFFAA68F4E7002E0CBF30242024E3E720
:104EE0004FF001098FE700BFF8B10200002900F080
:104EF000F4812DE9F04F054685B092460C460B78BB
:104F0000DFF8A8B501E0237893B1013483B1252BF4
:104F100015D0AA682968501CA8608B54D5E90132C5
:104F20009A42F0D32846FFF73FFF2378002BECD1BD
:104F30002B7B002B40F0148105B0BDE8F08F21469B
:104F4000002711F8012B2D2A00F0E180302A00F013
:104F5000E2802B2A00F0D2802A2A00F0E080A2F121
:104F60003006F3B2092B03D9B8E1A3F130060146AC
:104F7000084606EB860310F8012BA2F13004092C39
:104F800002EB4303F1D92E2A00F0D5800023013132
:104F900001E011F8012B02F0FB0068280C46F8D064
:104FA000253A532AAFD801A151F822F06D510200E1
:104FB000074F0200074F0200074F0200074F020091
:104FC000074F0200074F0200074F0200074F020081
:104FD000074F0200074F0200074F0200074F020071
:104FE000074F0200074F0200074F0200074F020061
:104FF000074F0200074F0200074F0200074F020051
:10500000074F0200074F0200074F0200074F020040
:10501000074F0200074F0200074F0200074F020030
:10502000074F0200074F0200074F0200074F020020
:10503000074F0200074F0200074F0200074F020010
:10504000074F0200074F0200074F0200074F020000
:10505000074F0200074F0200074F0200074F0200F0
:10506000074F0200074F0200074F0200074F0200E0
:10507000074F0200074F020087510200074F02004E
:10508000074F0200074F0200074F0200074F0200C0
:10509000074F0200074F0200074F0200074F0200B0
:1050A000074F0200A1510200C3510200074F020046
:1050B000074F0200074F0200074F0200C3510200D2
:1050C000074F0200074F0200074F0200074F020080
:1050D000074F0200074F020013520200074F020061
:1050E000074F020087520200074F0200C152020020
:1050F000074F0200074F02008751020047F00407E4
:105100000C46214611F8012B2D2A7FF41FAF47F0E2
:1051100001070C46F5E747F002070C46F1E7DAF81D
:1051200000301A1DCAF8002062781E682E2A04F189
:1051300002007FF42BAF4A78A2F13003092B00F272
:105140005081002303EB830302EB430310F8012F8C
:10515000A2F130010929A3F13003F3D9014616E782
:10516000284605B0BDE8F04FFFF71EBEAB682A68C1
:10517000591CA9604FF02501D154D5E901329A425A
:10518000FFF4C1AECEE6DAF80020111DCAF8001017
:1051900011682846CDE900671022FFF721FEB2E62C
:1051A000DAF80020131DCAF80030AB6829681278BD
:1051B000581CA860CA54D5E901329A42FFF4A3AE44
:1051C000B0E6DAF80020111DCAF80010D2F800800D
:1051D00088EAE872A2EBE872092A4FF0010107DDC4
:1051E000B148A0FB0202D208092A01F10101F7DC53
:1051F000994238BF1946894607F00202002E71D144
:105200002AB1002B00F04B81FA0700F18D800026B7
:105210008AE0DAF80020131DCAF80030AB6829686C
:105220001768581C3022A860CA54D5E9012393425C
:1052300080F02C812A68581C7821A860D154D5E9C7
:105240000123934280F01D810F2F03D93A461209A2
:105250000F2AFCD84FF0805603E036093FF453AED6
:10526000AB682968B7FBF6F2581CA8601BF802006F
:10527000C854D5E90131994206FB1277EDD328468F
:10528000FFF792FDE9E7DAF800301A1DCAF80020AE
:10529000D3F80080FB077ED54746A7EB080917F82F
:1052A000013B002B5DD0AA682968501CA8608B5474
:1052B000D5E901329A42F0D32846FFF775FDECE7B5
:1052C000DAF80020111DCAF8001011682846CDE94F
:1052D00000670A22FFF784FD15E67047084600269E
:1052E000214650E6B8F1000F01DB780700D5013EFA
:1052F00002B1CBB1F90717D4002E88D0B14513D233
:1053000020220393A9682B68481CA8605A54D5E949
:105310000131994206F1FF365DD2002E00F0C180C6
:10532000B145EFD1039B4E46B8F1000FC0F2968015
:105330007A070AD5A9684A1CAA602A682B2050540B
:10534000D5E90121914280F0968007F00302022AFC
:105350005FD0CDE9006741460A222846FFF740FDAD
:10536000D1E54E457FF6CFAD202705E04E453FF411
:10537000CAAD002E3FF4C7ADAB682A68591CA960BE
:10538000D754D5E901329A4206F1FF36EED32846CA
:10539000FFF70AFDEAE7B8F1000F24D0404605F018
:1053A0006EFE0746BE4220D9FEB14FF0200902E052
:1053B000BE421AD0CEB1AB682A68591CA96002F867
:1053C0000390D5E901329A4206F1FF36F0D3284620
:1053D000FFF7EAFCECE728460292FFF7E5FC029AA9
:1053E0009BE70146D2E54746DCE708F1FF3818F8AD
:1053F000013F002B3FF487ADAA682968501CA860C4
:105400008B54D5E901329A42F1D32846FFF7CCFC00
:10541000EDE7002B9DD1002E3FD0B14599D20293EC
:1054200023464C46B1461E46AA682B68501C4FF0D6
:105430003001A8609954D5E901329A4209F1FF3947
:1054400008D2B9F1000F26D04C45EDD13446029B6D
:105450004E467EE72846FFF7A7FCF2E7A9684A1CFC
:10546000AA602A682D205054D5E901219142C8F143
:105470000008FFF46AAF28460293FFF795FC029BF1
:1054800063E72846FFF790FCAB68DDE62846FFF7A8
:105490008BFCAB68CEE6029B3446002659E71E46DD
:1054A00042E7039BB3E600BFCDCCCCCCF8B1020001
:1054B000FFF71ABC2DE9F041058ACE1C043D2E44AD
:1054C0000746B6FBF5F6FFF72BFC78B3F6B24FF4C0
:1054D0008073013E0446C5800760838027D08046E4
:1054E000002509E06379AE4203F101036371C8F856
:1054F0000000076080461AD03846FFF711FC0135DE
:105500000028EFD16679721E14D023460130824202
:105510001B68FBD11F684EB1002523682146013569
:1055200038461C46FFF724FCAE42F6D10024204644
:10553000BDE8F0812768EFE710B40430012350E89C
:10554000002F02EB030140E8001494F0000FF6D1A5
:105550005DF8044B704700BF0146021DF8B50120FD
:1055600052E8004FA4EB000342E8003595F0000F2D
:10557000F6D113F0FF0300D0F8BD4E79701E11D0A4
:105580000A46013398421268FBD11768002EF3D007
:1055900000240D6801343846FFF7EAFBA64229468D
:1055A000F7D1F8BD0F68F3E72DE9F8430446181D5D
:1055B000E688B0FBF6F30F46904606FB130013B1E6
:1055C000013B2468FCD1351A454528BF4546B8F152
:1055D000000F15D04FF000090430A8EB0508204457
:1055E0002A4607EB090105F037FD4645A944246822
:1055F00035464FF0000028BF4546B8F1000FEBD10B
:10560000BDE8F8832DE9F843C688043304460F4605
:10561000B3FBF6F0904606FB103110B10138246858
:10562000FCD1751A454528BF4546B8F1000F15D085
:105630004FF0000904312144A8EB05082A4607EB86
:10564000090005F009FD4645A944246835464FF098
:10565000000128BF4546B8F1000FEBD1BDE8F88343
:1056600030B4184DA5F1F002AB1ADB1003EBD37385
:105670005B1002EBC30152F83330984228BF0C464E
:1056800005D311E052F8333098420CD221468B1AE0
:10569000DB1003EBD3735B108A4202EBC304F1D33C
:1056A000094830BC70470D46984204D904F10802FD
:1056B000AA42D9D3F4E76068034B002808BF184614
:1056C000EFE700BF0CB3020008B202004901002856
:1056D00010B4C9B2C3B215DB00F1604202F56142F9
:1056E00082F800134009800000F1604000F561403D
:1056F00003F01F0201239340C0F8803103605DF87E
:10570000044B7047024A03F00F0422441176E9E784
:10571000FCEC00E030B5194C94F8545083B055BB04
:105720004FF0FF3307210620C4E90033C4E90233F8
:10573000C4E90433C4E90633C4E90833C4E90A33CD
:10574000C4E90C33C4E90E33C4E91033C4E912339D
:105750002365FFF7BBFF0A4B0A4A1D601B680193D4
:1057600001984FF000430121284684F85410C2F8F4
:10577000043303B030BD082003B030BDB42A00208C
:105780007C61004000600040F0B4654B1C1894F947
:105790003050002D66DACE78002E5DD11D6A0135BD
:1057A00000F0AD8009240C2553F8247001375DD03A
:1057B00004F1010C53F82C70013700F0AA8004F1B9
:1057C000020CAC4545D253F82C70013700F0A18093
:1057D00004F1030CAC453CD253F82C70013700F0B7
:1057E000988004F1040CAC4533D253F82C70013787
:1057F00000F08F8004F1050CAC452AD253F82C70D0
:10580000013700F0868004F1060CAC4521D253F834
:105810002C7001377DD004F1070CAC4519D253F838
:105820002C70013775D004F1080CAC4511D253F837
:105830002C7001376DD004F1090CAC4509D253F836
:105840002C70013765D00A34AC4202D2DC6A0134D4
:105850000BD00420F0BC70471D6801355BD00124DB
:105860000825A1E70820F0BC70470B241F1865B27B
:1058700043F8242087F83050002E46D08A78B2B101
:10588000820002F1A042D2F8004724F00204C2F8DC
:105890000047CA780978B2B9083D2B44104693F8FE
:1058A000502042EA811183F85010F0BC70474C78C8
:1058B00000F5E0724FF0A046A40046F82240CA78F6
:1058C0000978002AE8D0AB0003F1804303F5C04318
:1058D0000002D3F8102522F4473222F44072C3F8B4
:1058E0001025090400F4F850D3F8102501F44031D4
:1058F00001431143C3F810150020F0BC704708267F
:1059000084F830601A62354634461C4484F84800F6
:10591000B4E76446AAE700251A6084F83050ADE782
:10592000B42A002070B42E4D2E1883B096F9303072
:10593000072B1CDD2B4493F848309B09032B41D0E7
:10594000012B14BF4FF440314FF40031800000F1BF
:10595000A040D0F8002722F44032C0F80027D0F849
:1059600000370B43C0F8003703B070BC7047DAB2A1
:10597000072AF9D8980000F1804000F5C04003F1F3
:105980004002D0F81045920092B244F0010402F1B6
:105990008042C0F8104502F5C04200200190019CF1
:1059A00010600029E0D096F9302055F82220002A16
:1059B000DAD001220B4902FA03F3C1F8043303B031
:1059C00070BC70474FF0A043D3F81035C34013F0BC
:1059D000010F0CBF4FF400314FF44031B6E700BF68
:1059E000B42A002000600040164B034493F9303085
:1059F000072B18DCDAB2072A14D810B49A0002F187
:105A0000804202F5C042104CD2F81005012120F06E
:105A1000010001FA03F3C2F81005C4F808335DF879
:105A2000044B70477047800000F1A040D0F8003769
:105A300023F44033C0F80037D0F80037C0F80037FF
:105A4000704700BFB42A0020006000402DE9F041FB
:105A500086B00023A14A01931668012E00F05481FC
:105A60001E469F4B1A68012A00F05D819D4B1A6803
:105A7000012A00F06A819C4B1A68012A00F07781A4
:105A80009A4B1A68012A00F08481994B1A68012AFE
:105A900000F09181974B1A68012A00F09E81964B85
:105AA0001A68012A0CD0954B1B68012B00F0A581C8
:105AB00016F0FF0F15D1002E30DB06B0BDE8F081E7
:105AC0008F4AD2F804231706EDD500221A601A680F
:105AD00004926033049A1B68012B46F0800600F0A4
:105AE0008C81884F00240125A30003F180433542B7
:105AF00003F5C0434FEA45050BD0D3F8100557F81E
:105B00002420D3F81015C0F30420C1F3014102B1E1
:105B100090470134082CE7D1002ECEDA00224FF056
:105B2000FF33CDE90223774C012602AF94F95030C0
:105B30005D1C2CD0DBB223F0C00006AA4FEAD00CCB
:105B400002EB0C0E03F007021EF80C1C06FA02F220
:105B500011421CD02518990995F9303054F823309A
:105B6000002B00F09881032900F098814FEA800C07
:105B70000CF1A04C1EF8145CDCF800E71540CEF3E5
:105B8000014E40F05C81BEF1030F00F0DE81002584
:105B900094F95130581C2DD0DBB223F0C00006AA76
:105BA0004FEAD00802EB080E03F007011EF80C2C98
:105BB00006FA01FC12EA0C0F1CD02218990992F97E
:105BC000303054F82330002B00F05B81032900F0C3
:105BD0005B81820002F1A0421EF8148CD2F800E72B
:105BE00018EA0C0FCEF3014E40F03681BEF1030FE0
:105BF00000F0A68194F95230591C2DD0DBB223F06D
:105C0000C00006AA4FEAD00802EB080E03F0070115
:105C10001EF80C2C06FA01FC12EA0C0F1CD02218FC
:105C2000990992F9303054F82330002B00F03C8170
:105C3000032900F03C81820002F1A0421EF8148C7E
:105C4000D2F800E718EA0C0FCEF3014E40F0E380E3
:105C5000BEF1030F00F06E8194F953305A1C2DD021
:105C6000DBB223F0C00006AA4FEAD00802EB080E10
:105C700003F007011EF80C2C06FA01FC12EA0C0FC7
:105C80001CD02218990992F9303054F82330002B97
:105C900000F0ED80032900F0ED80820002F1A042C7
:105CA0001EF8148CD2F800E718EA0C0FCEF3014E60
:105CB00040F0BC80BEF1030F00F00081002D3FF4E6
:105CC000FCAE4FF0A043019AD3F8103593423FF455
:105CD000F4AE029A0193039228E700BF00610040EE
:105CE00004610040086100400C6100401061004008
:105CF00014610040186100401C6100407C6100405C
:105D000000600040B42A00209A49D1F8041311F031
:105D1000010170D0136013680493049B964B1A68BA
:105D2000012A7FF4A3AE934AD2F8042397077FF5A4
:105D30009DAE00221A601B680493049B8F4B1A6867
:105D4000012A46F002067FF496AE8A4AD2F804236E
:105D500055077FF590AE00221A601B680493049BE0
:105D6000874B1A68012A46F004067FF489AE814AFF
:105D7000D2F8042314077FF583AE00221A601B6853
:105D80000493049B7F4B1A68012A46F008067FF4AF
:105D90007CAE784AD2F80423D0067FF576AE002296
:105DA0001A601B680493049B774B1A68012A46F01B
:105DB00010067FF46FAE6F4AD2F8042391067FF588
:105DC00069AE00221A601B680493049B6F4B1A682B
:105DD000012A46F020067FF462AE664AD2F8042318
:105DE00052067FF55CAE00221A601B680493049B88
:105DF00046F0400653E60E4633E6654B00221A6035
:105E00001B6805934FF0A043059AD3F81035019312
:105E100046F000464CE6BEF1020F7FF41DAF0329A9
:105E200063D0002B3FF418AF984715E7BEF1020F7F
:105E30007FF444AF032969D0002B54D13EE7BEF173
:105E4000020F7FF4A4AE032900F091800025002BFF
:105E50003FF49EAE98479BE6BEF1020F7FF4CAAEB8
:105E6000032956D0002B3FF4C5AE9847C2E603295C
:105E70007FF424AF17F8082042EA0C0207F8082044
:105E80000BE703297FF4B6AE17F8082042EA0C02AC
:105E900007F808209DE603297FF479AE17F80C5027
:105EA000154307F80C5061E603297FF4D5AE17F8C7
:105EB000082042EA0C0207F80820BCE60329BBD1FF
:105EC0004FF4003ED2F800C72CF4403CC2F800C7A3
:105ED000D2F800C701354CEA0E0CEDB2C2F800C78B
:105EE000002B3FF4EEAE9847E8E64FF4403ED2F880
:105EF00000C72CF4403CC2F800C7D2F800C70135F7
:105F00004CEA0E0CEDB2C2F800C78AE74FF4403EEF
:105F1000D8E74FF4403ED2F800C72CF4403CC2F81A
:105F200000C7D2F800C701354CEA0E0CEDB2C2F83A
:105F300000C797E703297FF474AF4FF4003ED6E71C
:105F400003298FD14FF4003EE5E703297FF47FAFAB
:105F50004FF40035DCF8002722F44032CCF800275B
:105F6000DCF800272A43CCF8002701256FE74FF41F
:105F70004035EFE7006000400461004008610040E8
:105F80000C61004010610040146100401861004045
:105F90007C6100402DE9F0414479544DE600371909
:105FA000BF0005EB070C9CF81CE0BEF1000F40F0B1
:105FB0008F80EA51CCF804300B7B91F800C0012BA4
:105FC0004FF0A0474FF0010303FA0CF394BFC7F85A
:105FD0000C35C7F808350B784FF0A04E03F5E07389
:105FE0004FF0010C4EF823C04F78FF2F68D007F513
:105FF000E0780CFA07F34FF0030CCEF80C354EF8AE
:1060000028C08B78FF2B60D003F5E07C9E464FF0D4
:10601000A0434FF0040843F82C8091F803C0BCF172
:10602000FF0F0FD04FF0A048012303FA0CF3C8F87C
:106030000835CB7803F5E0734FF0030C48F823C024
:1060400091F803C0437903EBC30305EB830383F8A3
:106050001EC0036891F800C0C3F808C5C3F80C75EA
:10606000C3F810E58F68C3F824754F7B91F80CC016
:10607000003718BF0127BCF1020F33D0BCF1030F6A
:106080002DD0BCF1010F01D147F00207C3F85475C0
:106090004F79C3F8C075F2B140270722C3F80473E3
:1060A000C3F80025097990F90400FFF70FFB344489
:1060B00005EB8405012300202B776877BDE8F0818C
:1060C0008B78FF2B4FF0FF379ED14FF0FF3EA4E7B8
:1060D0000820BDE8F0810722C3F80025E7E747F074
:1060E0000607D3E747F00407D0E700BF0C2B0020DA
:1060F0002DE9F0434479444DE7003E19B60005EB25
:10610000060E83B09EF81D809DF828C0B8F1000FE0
:1061100074D1AE5916B101268EF81D600C264FF0D1
:10612000240E1EFB046E05EB0E083E1945F80E10FA
:1061300005EB860688F80420C8F8083088F80CC0FB
:1061400096F821E096F81E8006F120090EF0FC0674
:106150006FF38206B8F1FF0F89F8016006D00126BF
:106160004FF0A04E06FA08F6CEF80C6521B101F00A
:106170006046B6F1005F25D123B103F06046B6F169
:10618000005F1FD106680020C6F84415C6F84825F0
:10619000C6F83435C6F838C5C6F81801D6F818312F
:1061A000019301223B190199C6F85005C6F8400534
:1061B000326155F8233073B14023C6F8043303B07D
:1061C000BDE8F0833C4405EB840500236B77102089
:1061D00003B0BDE8F083D6F81831002BFBD03C4467
:1061E00005EB8405AB7FFF2B0CD001224FF0A041C3
:1061F00002FA03F3C1F808350020E9E7112003B0E3
:10620000BDE8F0830020E3E70C2B00200F4AD2F812
:106210001831D3B100210E4BC2F81811D2F8181161
:106220009A7F82B0FF2A0191019906D001214FF097
:10623000A04001FA02F2C0F8082500225A771A722B
:10624000D3E90021034802B01047704700300040F6
:106250000C2B0020142B0020F0B506796F4C760132
:10626000A31987B0DD7E002D40F089804D7F1D771A
:106270000B685D1C0CD001254FF0A04705FA03F315
:10628000C7F808350B6803F5E073032547F823507A
:106290004B685F1C06D003F5E0734FF0A045002764
:1062A00045F82370037905688F6904EB43131B7F5E
:1062B000C5F82475002B46D00F7D4B7D05683B4308
:1062C000C5F86C35D1E900750368C3F80C75C3F8DF
:1062D00014550B7D012B7FD0A31905465A600B691D
:1062E000A351EAB10379097F026804EB43131B7FD2
:1062F000002B4BD1C2F81C31D2F81C012A68009047
:106300000098C2F84431D2F844212B680192444AE3
:106310000198C3F80423286840F30730FFF7D6F943
:106320002B792A6804EB43131B7F5BB30823C2F865
:106330000035344400200123E376E0752076A07513
:10634000A07607B0F0BD91F814C04D7D076845EA0E
:106350000C05C7F86C55D1E900C70568C5F8147578
:10636000C5F80CC50D7D012DB6D18D686F1C3DD0D3
:1063700005F5E0754FF0A04747F8253036E00820D6
:1063800007B0F0BD0423C2F80035D2E70023C2F8FD
:106390001031D2F810012A6802900298C2F8203118
:1063A000D2F820012A6803900398C2F82431D2F869
:1063B00024012A6804900498C2F84431D2F8442198
:1063C0002B680592174A0598C3F80423286840F300
:1063D0000730FFF77BF9A3E78B685D1C06D003F558
:1063E000E0734FF0A045002745F82370CB685D1C93
:1063F0000DD001254FF0A04705FA03F3C7F8083583
:10640000CB6803F5E073032547F82350CB68056894
:106410008F68C5F80835C5F810755DE7302B00208A
:106420008000020010030200F0B404793C4B0168C4
:1064300064011A19127F002A6DD00022C1F80025CC
:106440001A19017955680268B5B103EB4111097F4A
:10645000002963D13349C2F808130268324E120B87
:1064600051B24909203102F01F02012505FA02F25A
:1064700046F8212001790268D2F80C75D2F814652B
:1064800003EB41114FF0FF3C097FB1B3D2F808157F
:10649000D2F81055C2F80CC5C2F814C50268C2F88B
:1064A00008C5C2F810C57A1C06D007F5E0774FF092
:1064B000A042022042F82700771C06D006F5E076BD
:1064C0004FF0A042022042F82600681C06D005F5D5
:1064D000E0754FF0A042022042F825004A1C06D089
:1064E00001F5E0714FF0A042022042F82100234460
:1064F0000022DA765A60F0BC7047D2F80815D2F85C
:106500001055C2F814C5C2F80CC50268C2F808C517
:10651000C2F810C5C7E7C1F8002591E703499AE71B
:10652000302B00208402020000E100E01003020092
:10653000F0B50379524C5B01E51887B02D7F25B18A
:1065400001F06045B5F1005F58D123449E7D002ED7
:1065500057D19A7599609E8205796D016219137FF2
:1065600013BB0168C1F81C31D1F81C6101680496A5
:106570000126049F8E600168D2F808C0C1F81C3162
:10658000D1F81C310593059B968A938A5768B6B259
:1065900001331CF806609BB29382C1F81C65002F82
:1065A00032D0002007B0F0BD03689168C3F82061C5
:1065B000D3F8203101930368019FC3F85861D3F8E1
:1065C000586103680296967D029FC3F84415C3F88C
:1065D00048650368012199605368002BE1D1036885
:1065E00001E0002949D1D3F82021D3F85811002A1D
:1065F000F7D0002914BF0F20002039E0102007B089
:10660000F0BD112007B0F0BD967D938A9E4222D93D
:10661000016804E0938A9BB2B3F5807F03D0D1F880
:106620001C31002BF6D0938A9BB2B3F5807FECD05F
:10663000C1F81C71D1F81C310393039BB2F814E02C
:10664000938A1FFA8EFE01331CF80EE09BB29382F0
:10665000C1F81CE5D9E7938A9BB2B3F5807F0CD0D3
:106660000268D2F81C31002BFBD00123D36000203C
:106670002C440023A37507B0F0BD0F20F8E700BF3E
:10668000302B0020F0B5A94C237F8FB0002B73D1A5
:10669000A74AD2F80413890546D4A54BD3F804239E
:1066A000520704D5D3F80821002A40F0D480A04B2B
:1066B000D3F81C21BAB1A18AA27D8A4200F2B98026
:1066C0000021C3F81C11D3F81C310593059B52B16E
:1066D000A3688DF82810A1750B938DF83020D4E9AC
:1066E00000130AA89847924BD3F84421D2B1002254
:1066F000C3F84421D3F84411A27E04910499002ADE
:1067000040F09480E37D6BB10023617EE268E37525
:1067100001238DF830108DF828300B92D4E9001346
:106720000AA898470FB0F0BDD2F824110029B4D0C0
:10673000C2F82431D2F82411A37E07914FF40171DD
:106740000798C2F808130BB901235360784A022353
:106750008DF82830D2F88034C2F88034E07DE268C9
:106760000D9300238DF83000E375237621680B929A
:1067700063680AA898479AE76D4BD3F82421002A4A
:1067800000F097800022C3F82421D3F8241102914D
:1067900002218DF828100299D3F88014C3F88014D0
:1067A0000D91D3F83C15E3688DF830100B93E2752A
:1067B0002276216863680AA898475D4BD3F8442184
:1067C000B2B10022C3F84421D3F84401E17D019025
:1067D000019869B1D3F83C35E1688DF83030012378
:1067E0000B918DF82830E275D4E900130AA8984778
:1067F0004F4BD3F82021002A94D00022C3F8202147
:10680000D3F82001A17D0090009800298AD0D3F808
:106810004C15A3688DF830100B938DF82820A275C5
:10682000D4E900130AA898470FB0F0BD01221A60FE
:1068300068E70022C3F81C21D3F81C210692069AAF
:10684000A18AA28AA06889B20132415C92B2A28276
:10685000C3F81C1547E7E27D002A54D00022C3F894
:106860000821D3F808210892089AE168627ED3F8DB
:1068700018358B54637EE27D0133DBB26376637E31
:1068800093427FF414AF237E2168002B52D0E2683C
:10689000657E2069E3750B9200230122E060237678
:1068A00063768DF830508DF8282063680AA89847E1
:1068B000FDE6D3F8101100293FF47FAFC3F8102193
:1068C000D3F8101103910399D3F83C15E07DC9B2B8
:1068D00088427FF472AF257EE768D4E90016DDB107
:1068E000D3F800C2E5752CF020052276C3F80052DB
:1068F000012223698DF83000E3600B978DF8282082
:106900000AA8B04759E7C3F80821D3F8081109913C
:106910000999D3F81835B2E701238DF83000E575F1
:106920000B978DF828300AA8B04746E7302B002097
:1069300000200040A37E13B90A4B01225A60094A85
:10694000E06863684FF40175C2F80853627E8DF801
:106950003020002501220B90E5758DF828200AA82B
:106960009847A4E60020004060B910B5064CA36823
:106970003BB1D3E900230020A2609847A368002B15
:10698000F7D110BD704700BF502B002010B5012873
:1069900082B029D022D303281ED107210020FEF780
:1069A00095FE02A80023264C00F8013DFEF75EF993
:1069B000E368013BE360E36853B9224B01221A60AC
:1069C0004FF08042D2F8183413F48033FAD1A37018
:1069D0009DF80700FEF770F902B010BD1A4B0122B6
:1069E000C3F8802002B010BD02A80023144C00F8A8
:1069F000013DFEF73BF9237853B1E3689DF80700AA
:106A000001330122E360A270FEF756F902B010BD17
:106A10000D4A6360A3602361E360106810F0010019
:106A20000AD004F065F920B94FF080430122C3F881
:106A3000182501232370E0E70721FEF747FEF0E762
:106A4000502B00200C00004000E100E010B51B4B73
:106A50001A6882B0AAB100221A601B6800934FF036
:106A600080430122164C0099C3F80823A368627082
:106A70003BB1D3E900230020A2609847A368002B14
:106A8000F7D1104B1A68B2B100221A601B6801934B
:106A90004FF0804302220A4C0199C3F8082323696E
:106AA0000122A2703BB1D3E9002301202261984763
:106AB0002369002BF7D102B010BD00BF00010040D8
:106AC000502B0020040100402FDF704730DF70475B
:106AD0003EDF704773DF704776DF70477ADF7047BD
:106AE0007CDF70477FDF70478FDF7047A8DF70471C
:106AF000A9DF704766DF7047014B01221A707047AB
:106B0000852C002000B583B002AB054A43F8040D84
:106B100004211846FDF710FB03B05DF804FB00BF2D
:106B2000456D020010B50220AAB1FDF733FA144BEF
:106B30001A7882F001041AB912490878C8B10A70AB
:106B4000114A124910881C70000440F00300BDE88F
:106B50001040FCF723BEFDF71DFA094B1A7882F0AE
:106B600001041AB90749087830B10A70064A084981
:106B7000E8E701220A70E3E701220A70F6E700BFA6
:106B8000982100209C2100207C230020A0B6020038
:106B9000B4B60200EFF3058313F0FF0F00D0704787
:106BA000034B04491888000440F00300FCF7F6BDCD
:106BB0007C230020F4B6020010B50388013B84B0AA
:106BC0000446552B58D8DFE803F08E5757575757D0
:106BD000575757575757575757952B57AB575757DF
:106BE0005757575757575757575763575757575729
:106BF0005757575757575757575757575757575725
:106C00005757575759575757575757575757575712
:106C1000575757575757575757576D8457575759BF
:106C2000444B45491888000440F00300FCF7B6FDCA
:106C30000120FDF7BBF9414B4FF6FF721A80FDF7BB
:106C4000F5F908B1FDF70CFA10220021684604F0AE
:106C50000EFA00234022684601218DF8003001938E
:106C60008DF80830CDF80A20FFF734FF08B1FDF7A2
:106C7000F7F90020FDF78EF904B010BD80881321CC
:106C8000FFF72AFF0028F7D0FDF7EAF904B010BD9E
:106C900004A9002321F8103D8088FFF725FF002874
:106CA000EAD0F1E78379002BE6D0827B043A022A0E
:106CB000E2D8022B18BF01238DF8003080884FF4F2
:106CC000C1736946ADF80430FFF710FF0028D3D038
:106CD000DAE71A4A0023108819461A46FFF708FF18
:106CE0000028C9D0D0E780880021FFF703FF0028E3
:106CF000C2D0C9E70F4B12491888000440F00300C6
:106D0000FCF74CFD0120FDF745F90020FDF74EF999
:106D10000A4BA2881A80FDF773F90028ACD0B3E7BC
:106D2000064A0023108885211A46FFF7DBFE00285B
:106D3000A2D0A9E77C23002050B602009A210020AF
:106D400044B6020010B503680D3B032B0FD8DFE8F3
:106D500003F0321F11022A4B1A782AB12949087808
:106D6000002849D00020087082F001021A70EFF369
:106D7000058310BD224B1A7882F0010122B9214807
:106D8000047804B9012202701970EFF3058310BD75
:106D90001D48FDF731FF60BB1C4B1D4918880004DE
:106DA00040F00300FCF7FAFCFCF770FF0028FBD171
:106DB000EFF3058310BD002240F6CD411248FDF7E8
:106DC000C5FE124B68B118881249000440F0030058
:106DD000FCF7E4FCFCF75AFF0028FBD1EFF3058336
:106DE00010BD18880C49000440F00300FCF7D6FCE5
:106DF000F0E7FDF735F9CFE701200870B4E700BFF1
:106E0000982100209C210020642C00207C2300205D
:106E100090B6020060B6020080B6020010B584B0E1
:106E20004FF0A04304A94FF080522C4C01F8010D03
:106E3000C3F80C25002200922270294B2948012218
:106E4000FFF756F908B145E020BF2378002BFBD0AF
:106E5000254B26491A680A2300BF00BF00BF00BFA8
:106E600000BF00BF00BF00BF8A422FD000BF00BFDD
:106E700000BF00BF00BF00BF00BF00BF00BF00BF1A
:106E800000BF00BF00BF00BF00BF00BF00BF00BF0A
:106E900000BF00BF00BF00BF00BF00BF00BF00BFFA
:106EA00000BF00BF00BF00BF00BF00BF00BF00BFEA
:106EB00000BF00BF00BF00BF00BF00BF00BF00BFDA
:106EC00000BF00BF00BF00BF00BF00BF013BC3D178
:106ED00004B010BDFDF7C4F8B7E700BF852C002053
:106EE000842C0020ECB60200A02100200024F40035
:106EF00010B584B04FF0A04304A94FF080522C4C41
:106F000001F8010DC3F80825002200922270294BD8
:106F100029480122FFF7ECF808B145E020BF2378AB
:106F2000002BFBD0254B26491A680A2300BF00BF5F
:106F300000BF00BF00BF00BF00BF00BF8A422FD00C
:106F400000BF00BF00BF00BF00BF00BF00BF00BF49
:106F500000BF00BF00BF00BF00BF00BF00BF00BF39
:106F600000BF00BF00BF00BF00BF00BF00BF00BF29
:106F700000BF00BF00BF00BF00BF00BF00BF00BF19
:106F800000BF00BF00BF00BF00BF00BF00BF00BF09
:106F900000BF00BF00BF00BF00BF00BF00BF00BFF9
:106FA000013BC3D104B010BDFDF75AF8B7E700BFED
:106FB000852C0020842C0020ECB60200A0210020AB
:106FC0000024F4002DE9F04F6A4F6B4C3A6842F20E
:106FD00010758BB02B4600BF00BF00BF00BF00BFC5
:106FE00000BF00BF00BFA2422FD000BF00BF00BF44
:106FF00000BF00BF00BF00BF00BF00BF00BF00BF99
:1070000000BF00BF00BF00BF00BF00BF00BF00BF88
:1070100000BF00BF00BF00BF00BF00BF00BF00BF78
:1070200000BF00BF00BF00BF00BF00BF00BF00BF68
:1070300000BF00BF00BF00BF00BF00BF00BF00BF58
:1070400000BF00BF00BF00BF00BF013BC3D14FF076
:10705000A0484FF08041494BC8F8081500BF00BF59
:1070600000BF00BF00BF00BF00BF00BFA2422FD0C3
:1070700000BF00BF00BF00BF00BF00BF00BF00BF18
:1070800000BF00BF00BF00BF00BF00BF00BF00BF08
:1070900000BF00BF00BF00BF00BF00BF00BF00BFF8
:1070A00000BF00BF00BF00BF00BF00BF00BF00BFE8
:1070B00000BF00BF00BF00BF00BF00BF00BF00BFD8
:1070C00000BF00BF00BF00BF00BF00BF00BF00BFC8
:1070D000013BC3D1D720FFF7A1FE9F20FFF708FF98
:1070E000E020FFF79BFE0020FFF702FF3B6800BF98
:1070F00000BF00BF00BF00BF00BF00BF00BFA34272
:107100002FD000BF00BF00BF00BF00BF00BF00BF47
:1071100000BF00BF00BF00BF00BF00BF00BF00BF77
:1071200000BF00BF00BF00BF00BF00BF00BF00BF67
:1071300000BF00BF00BF00BF00BF00BF00BF00BF57
:1071400000BF00BF00BF00BF00BF00BF00BF00BF47
:1071500000BF00BF00BF00BF00BF00BF00BF00BF37
:1071600000BF013DC3D1E320FFF758FE44F6206382
:107170003A6805E0A02100200024F400C0D40100FA
:1071800000BF00BF00BF00BF00BF00BF00BF00BF07
:10719000A2422FD000BF00BF00BF00BF00BF00BF92
:1071A00000BF00BF00BF00BF00BF00BF00BF00BFE7
:1071B00000BF00BF00BF00BF00BF00BF00BF00BFD7
:1071C00000BF00BF00BF00BF00BF00BF00BF00BFC7
:1071D00000BF00BF00BF00BF00BF00BF00BF00BFB7
:1071E00000BF00BF00BF00BF00BF00BF00BF00BFA7
:1071F00000BF00BF013BC3D1E120FFF70FFE11200C
:10720000FFF70CFE2820FFF709FE4CF250333A68D6
:1072100000BF00BF00BF00BF00BF00BF00BF00BF76
:10722000A2422FD000BF00BF00BF00BF00BF00BF01
:1072300000BF00BF00BF00BF00BF00BF00BF00BF56
:1072400000BF00BF00BF00BF00BF00BF00BF00BF46
:1072500000BF00BF00BF00BF00BF00BF00BF00BF36
:1072600000BF00BF00BF00BF00BF00BF00BF00BF26
:1072700000BF00BF00BF00BF00BF00BF00BF00BF16
:1072800000BF00BF013BC3D1C020FFF7C7FD5320A3
:10729000FFF72EFE0120FFF72BFEC320FFF7BEFDF8
:1072A0000220FFF725FEC420FFF7B8FD0620FFF7F8
:1072B0001FFED020FFF7B2FD1D20FFF719FEB520FD
:1072C000FFF7ACFD0020FFF713FE3920FFF7A6FD06
:1072D0003A20FFF7A3FD0220FFF70AFE3620FFF752
:1072E0009DFD0020FFF704FEB020FFF797FD9F20D3
:1072F000FFF7FEFDB420FFF791FDA020FFF7F8FD9A
:107300003020FFF78BFD0020FFF7F2FD0020FFF794
:10731000EFFD0020FFF7ECFD7720FFF7E9FD2020CF
:10732000FFF77CFD2A20FFF779FD0020FFF7E0FD45
:107330000020FFF7DDFD0020FFF7DAFD7F20FFF7DB
:10734000D7FD2B20FFF76AFD0020FFF7D1FD0020BD
:10735000FFF7CEFD0020FFF7CBFD9F20FFF7C8FD14
:107360002C20FFF75BFD744CDFF8DCA1DFF8DC912B
:1073700045F214064FF080554FF0000C8DF81BC0FD
:107380005346C8F808550122CDF800C00DF11B0185
:10739000484684F800C0FEF7ABFE10B100F0B1BC67
:1073A00020BF2378002BFBD00A210B463868634AA4
:1073B00000BF00BF00BF00BF00BF00BF00BF00BFD5
:1073C00090422FD000BF00BF00BF00BF00BF00BF72
:1073D00000BF00BF00BF00BF00BF00BF00BF00BFB5
:1073E00000BF00BF00BF00BF00BF00BF00BF00BFA5
:1073F00000BF00BF00BF00BF00BF00BF00BF00BF95
:1074000000BF00BF00BF00BF00BF00BF00BF00BF84
:1074100000BF00BF00BF00BF00BF00BF00BF00BF74
:1074200000BF00BF013BC3D1013EA5D1444BDFF8F3
:1074300020E1DFF820C143481960DFF81CB1DFF814
:107440000891DFF808810396012315468EF8003075
:107450008CF8003006704FF0A04A03982A220923C6
:10746000811C8DF826204FF08052CBE92530CBF8D7
:107470009030CBF89C104B46CAF80C250DF1260134
:107480000096012240462670FEF732FE10B100F051
:107490003FBC20BF2378002BFBD00A233A6800BFF3
:1074A00000BF00BF00BF00BF00BF00BF00BFAA42B7
:1074B0002FD000BF00BF00BF00BF00BF00BF00BF94
:1074C00000BF00BF00BF00BF00BF00BF00BF00BFC4
:1074D00000BF00BF00BF00BF00BF00BF00BF00BFB4
:1074E00000BF00BF00BF00BF00BF00BF00BF00BFA4
:1074F00000BF00BF00BF00BF00BF00BF00BF00BF94
:1075000000BF00BF00BF00BF00BF00BF00BF00BF83
:1075100000BF013BC3D14FF080518DF8256001229F
:10752000CAF808154B4600960DF125014046267015
:10753000FEF7DEFD98B1F2E3852C00200024F40074
:1075400094210020342C0020842C0020ECB6020072
:10755000982100209C210020882D002020BF237826
:10756000002BFBD00A233A6800BF00BF00BF00BF5A
:1075700000BF00BF00BF00BFAA422FD000BF00BFA6
:1075800000BF00BF00BF00BF00BF00BF00BF00BF03
:1075900000BF00BF00BF00BF00BF00BF00BF00BFF3
:1075A00000BF00BF00BF00BF00BF00BF00BF00BFE3
:1075B00000BF00BF00BF00BF00BF00BF00BF00BFD3
:1075C00000BF00BF00BF00BF00BF00BF00BF00BFC3
:1075D00000BF00BF00BF00BF00BF00BF013BC3D161
:1075E0004FF08052DBF894308DF8243009A9CAF8A6
:1075F00008254B460096404601222670FEF778FD8E
:1076000008B189E320BF2378002BFBD00A233A6816
:1076100000BF00BF00BF00BF00BF00BF00BF00BF72
:10762000AA422FD000BF00BF00BF00BF00BF00BFF5
:1076300000BF00BF00BF00BF00BF00BF00BF00BF52
:1076400000BF00BF00BF00BF00BF00BF00BF00BF42
:1076500000BF00BF00BF00BF00BF00BF00BF00BF32
:1076600000BF00BF00BF00BF00BF00BF00BF00BF22
:1076700000BF00BF00BF00BF00BF00BF00BF00BF12
:1076800000BF00BF013BC3D14FF080518DF8236094
:107690000122CAF808154B4600960DF12301404619
:1076A0002670FEF725FD08B151E320BF2378002B9B
:1076B000FBD00A233A6800BF00BF00BF00BF00BF75
:1076C00000BF00BF00BFAA422FD000BF00BF00BF55
:1076D00000BF00BF00BF00BF00BF00BF00BF00BFB2
:1076E00000BF00BF00BF00BF00BF00BF00BF00BFA2
:1076F00000BF00BF00BF00BF00BF00BF00BF00BF92
:1077000000BF00BF00BF00BF00BF00BF00BF00BF81
:1077100000BF00BF00BF00BF00BF00BF00BF00BF71
:1077200000BF00BF00BF00BF00BF013BC3D14FF08F
:107730008052DBF890308DF822300DF12201CAF82A
:1077400008254B460096404601222670FEF7D0FCE5
:1077500008B1F9E220BF2378002BFBD00A233A6856
:1077600000BF00BF00BF00BF00BF00BF00BF00BF21
:10777000AA422FD000BF00BF00BF00BF00BF00BFA4
:1077800000BF00BF00BF00BF00BF00BF00BF00BF01
:1077900000BF00BF00BF00BF00BF00BF00BF00BFF1
:1077A00000BF00BF00BF00BF00BF00BF00BF00BFE1
:1077B00000BF00BF00BF00BF00BF00BF00BF00BFD1
:1077C00000BF00BF00BF00BF00BF00BF00BF00BFC1
:1077D00000BF00BF013BC3D12B234FF080528DF877
:1077E00021300DF12101CAF80C254B460096404688
:1077F00001222670FEF77CFC08B1A2E220BF2378AC
:10780000002BFBD00A233A6800BF00BF00BF00BFB7
:1078100000BF00BF00BF00BFAA422FD000BF00BF03
:1078200000BF00BF00BF00BF00BF00BF00BF00BF60
:1078300000BF00BF00BF00BF00BF00BF00BF00BF50
:1078400000BF00BF00BF00BF00BF00BF00BF00BF40
:1078500000BF00BF00BF00BF00BF00BF00BF00BF30
:1078600000BF00BF00BF00BF00BF00BF00BF00BF20
:1078700000BF00BF00BF00BF00BF00BF013BC3D1BE
:107880004FF080518DF820600122CAF808154B4650
:10789000009608A940462670FEF72AFC08B14DE282
:1078A00020BF2378002BFBD00A233A6800BF00BF1B
:1078B00000BF00BF00BF00BF00BF00BFAA422FD063
:1078C00000BF00BF00BF00BF00BF00BF00BF00BFC0
:1078D00000BF00BF00BF00BF00BF00BF00BF00BFB0
:1078E00000BF00BF00BF00BF00BF00BF00BF00BFA0
:1078F00000BF00BF00BF00BF00BF00BF00BF00BF90
:1079000000BF00BF00BF00BF00BF00BF00BF00BF7F
:1079100000BF00BF00BF00BF00BF00BF00BF00BF6F
:10792000013BC3D14FF08052DBF898308DF81F3007
:107930000DF11F01CAF808254B460096404601226A
:107940002670FEF7D5FB08B1F5E120BF2378002BA8
:10795000FBD00A233A6800BF00BF00BF00BF00BFD2
:1079600000BF00BF00BFAA422FD000BF00BF00BFB2
:1079700000BF00BF00BF00BF00BF00BF00BF00BF0F
:1079800000BF00BF00BF00BF00BF00BF00BF00BFFF
:1079900000BF00BF00BF00BF00BF00BF00BF00BFEF
:1079A00000BF00BF00BF00BF00BF00BF00BF00BFDF
:1079B00000BF00BF00BF00BF00BF00BF00BF00BFCF
:1079C00000BF00BF00BF00BF00BF013BC3D14FF0ED
:1079D00080518DF81E600122CAF808154B460096AA
:1079E0000DF11E0140462670FEF782FB08B19FE1B3
:1079F00020BF2378002BFBD00A233A6800BF00BFCA
:107A000000BF00BF00BF00BF00BF00BFAA422FD011
:107A100000BF00BF00BF00BF00BF00BF00BF00BF6E
:107A200000BF00BF00BF00BF00BF00BF00BF00BF5E
:107A300000BF00BF00BF00BF00BF00BF00BF00BF4E
:107A400000BF00BF00BF00BF00BF00BF00BF00BF3E
:107A500000BF00BF00BF00BF00BF00BF00BF00BF2E
:107A600000BF00BF00BF00BF00BF00BF00BF00BF1E
:107A7000013BC3D14FF08052DBF89C308DF81D30B4
:107A80000DF11D01CAF808254B460096404601221B
:107A90002670FEF72DFB08B147E120BF2378002BAD
:107AA000FBD00A233A6800BF00BF00BF00BF00BF81
:107AB00000BF00BF00BFAA422FD000BF00BF00BF61
:107AC00000BF00BF00BF00BF00BF00BF00BF00BFBE
:107AD00000BF00BF00BF00BF00BF00BF00BF00BFAE
:107AE00000BF00BF00BF00BF00BF00BF00BF00BF9E
:107AF00000BF00BF00BF00BF00BF00BF00BF00BF8E
:107B000000BF00BF00BF00BF00BF00BF00BF00BF7D
:107B100000BF00BF00BF00BF00BF013BC3D12C238B
:107B20004FF080528DF81C3007A9CAF80C254B463F
:107B30000096404601222670FEF7DAFA08B1F1E01D
:107B400020BF2378002BFBD00A233A6800BF00BF78
:107B500000BF00BF00BF00BF00BF00BFAA422FD0C0
:107B600000BF00BF00BF00BF00BF00BF00BF00BF1D
:107B700000BF00BF00BF00BF00BF00BF00BF00BF0D
:107B800000BF00BF00BF00BF00BF00BF00BF00BFFD
:107B900000BF00BF00BF00BF00BF00BF00BF00BFED
:107BA00000BF00BF00BF00BF00BF00BF00BF00BFDD
:107BB00000BF00BF00BF00BF00BF00BF00BF00BFCD
:107BC000013BC3D10323CDF810B09B46FF234FF0F8
:107BD00080528DF827300DF12701CAF808254B4651
:107BE0000096012240462670FEF782FA08B18CE02A
:107BF00020BF2378002BFBD00A233A6800BF00BFC8
:107C000000BF00BF00BF00BF00BF00BFAA422FD00F
:107C100000BF00BF00BF00BF00BF00BF00BF00BF6C
:107C200000BF00BF00BF00BF00BF00BF00BF00BF5C
:107C300000BF00BF00BF00BF00BF00BF00BF00BF4C
:107C400000BF00BF00BF00BF00BF00BF00BF00BF3C
:107C500000BF00BF00BF00BF00BF00BF00BF00BF2C
:107C600000BF00BF00BF00BF00BF00BF00BF00BF1C
:107C7000013BC3D1BBF1010BA8D1CDF814B0DDE9B4
:107C8000033B03331E2B0393ABF1100B7FF4E5ABE7
:107C9000304C314D632209232A2022602B60FFF7EC
:107CA000BDF8059E3046FFF723F92878FFF720F945
:107CB0003046FFF71DF92878FFF71AF92B20FFF758
:107CC000ADF83046FFF714F92368033BD8B2FFF74D
:107CD0000FF93046FFF70CF92078FFF709F92C204F
:107CE000FFF79CF8FF20FFF703F9FF20FFF700F9EB
:107CF000FF20FFF7FDF82920FFF790F80BB0BDE853
:107D0000F08FFCF7ADF9FFF74CBBFCF7A9F970E772
:107D1000FCF7A6F9FFF7BEBBFCF7A2F973E4FCF78A
:107D20009FF91CE4FCF79CF90BE7FCF799F9B5E621
:107D3000FCF796F95DE6FCF793F907E6FCF790F996
:107D4000AFE5FCF78DF95AE5FCF78AF903E5FCF796
:107D500087F9ABE42C2C0020302C00202DE9F04FCB
:107D6000AA4C94E80F00ADB01DAD85E80F001F23AD
:107D700041F604524FF0805029468DF877300325A4
:107D8000ADF874201F900023A14AA2488DF88050BE
:107D9000FEF700F908B1FCF763F94FF0A0430322A6
:107DA0004FF080504FF08041C3F80805C3F87027AA
:107DB000C3F80C15C3F87827FFF704F9FDF7AAFC00
:107DC00008B1FCF74DF923691D93934A03231DA9BC
:107DD0000D208DF87530FDF7D7FC08B1FCF740F9A0
:107DE0008D4A1DA90E20FDF7CFFC08B1FCF738F92C
:107DF000894A1DA90F20FDF7C7FC08B1FCF730F92F
:107E0000854A1DA91020FDF7BFFC08B1FCF728F931
:107E100001210D20FDF786FD01210E20FDF782FDD9
:107E200001210F20FDF77EFD01211020FDF77AFDD5
:107E3000FCF7C8F8FCF7B8FD08B1FCF711F9002011
:107E4000FBF740FC08B1FCF70BF9FBF71FFB02F056
:107E5000CBFE08B1FCF704F900231DA901201D93F6
:107E600002F08EFF08B1FCF7FBF81DA803F03AF80A
:107E700008B1FCF7F5F82CAB1A46112302F8783D4F
:107E800066480292144603F0FAF8644982B220462A
:107E9000FEF726FE08B1FCF7E3F8082200211DA832
:107EA00003F0E5F85E4B1D931DA84FF0C8731E93B9
:107EB000FEF714FE08B1FCF7D3F80021594802F090
:107EC00091FC08B1FCF7CCF8574B58481D931DA9FD
:107ED00002F0B4FD08B1FCF7C3F8544A029D927C4D
:107EE0008DF8362041F223533C2200212846ADF87C
:107EF000343003F0BCF802200623012400218DF861
:107F000038003C221DA88DF83B308DF83A4003F034
:107F1000AEF80DAB1DA92846ADF88440229302F0BF
:107F200071F808B1FCF79CF80A210846404AFCF7B2
:107F3000DBF808B1FCF794F83E4B3F491888000481
:107F400040F00300FBF72AFC102200211DA803F0DB
:107F50008EF80023402201211DA88DF874301E9355
:107F60008DF87C30CDF87E20FEF7B4FD08B1FCF72B
:107F700077F80020FCF70EF8304A31480121FCF771
:107F8000D3FD08B1FCF76CF82E4C2F4E2F4DDFF8C7
:107F900084B0DFF8C4A0FEF79BFDFCF737F9FBF7D0
:107FA00075FE002801F00981294B1A68531E01F162
:107FB000C38028499846434501EB021900F06984C3
:107FC000B8F1000F01F0138359E9063249F8042C87
:107FD00049F8083C59F8202C59F81C3C49E904237D
:107FE0004FF0A0422A234FF0805100278DF82F3008
:107FF0005846C2F80C152B46009701220DF12F01AF
:108000002770FEF775F850B301F092B830B6020051
:10801000F96A0200ECB60200056B0200CCB6020061
:108020005000A000382C0020256B02004C2C0020B2
:10803000642B00207C230020D4B60200956B020044
:10804000C8B60200852C0020A0210020842C00202E
:1080500094210020882D00200024F40020BF2378E4
:10806000002BFBD00A23326800BF00BF00BF00BF57
:1080700000BF00BF00BF00BF52452FD000BF00BFF0
:1080800000BF00BF00BF00BF00BF00BF00BF00BFF8
:1080900000BF00BF00BF00BF00BF00BF00BF00BFE8
:1080A00000BF00BF00BF00BF00BF00BF00BF00BFD8
:1080B00000BF00BF00BF00BF00BF00BF00BF00BFC8
:1080C00000BF00BF00BF00BF00BF00BF00BF00BFB8
:1080D00000BF00BF00BF00BF00BF00BF013BC3D156
:1080E0004FF0A04200274FF080518DF82E702B46A4
:1080F000C2F80815584600970DF12E01012227708D
:10810000FDF7F6FF10B101F00FB820BF2378002B68
:10811000FBD00A23326800BF00BF00BF00BF00BF12
:1081200000BF00BF00BF52452FD000BF00BF00BF3F
:1081300000BF00BF00BF00BF00BF00BF00BF00BF47
:1081400000BF00BF00BF00BF00BF00BF00BF00BF37
:1081500000BF00BF00BF00BF00BF00BF00BF00BF27
:1081600000BF00BF00BF00BF00BF00BF00BF00BF17
:1081700000BF00BF00BF00BF00BF00BF00BF00BF07
:1081800000BF00BF00BF00BF00BF013BC3D14FF025
:10819000A04359F80C2C8DF82D2000274FF0805269
:1081A000C3F808250DF12D0100972B4658460122F2
:1081B0002770FDF79DFF10B100F0B2BF20BF2378FC
:1081C000002BFBD00A23326800BF00BF00BF00BFF6
:1081D00000BF00BF00BF00BF52452FD000BF00BF8F
:1081E00000BF00BF00BF00BF00BF00BF00BF00BF97
:1081F00000BF00BF00BF00BF00BF00BF00BF00BF87
:1082000000BF00BF00BF00BF00BF00BF00BF00BF76
:1082100000BF00BF00BF00BF00BF00BF00BF00BF66
:1082200000BF00BF00BF00BF00BF00BF00BF00BF56
:1082300000BF00BF00BF00BF00BF00BF013BC3D1F4
:108240004FF0A04200274FF080518DF82C702B4644
:10825000C2F80815584600970BA901222770FDF7B0
:1082600047FF10B100F058BF20BF2378002BFBD090
:108270000A23326800BF00BF00BF00BF00BF00BFBD
:1082800000BF00BF52452FD000BF00BF00BF00BFDE
:1082900000BF00BF00BF00BF00BF00BF00BF00BFE6
:1082A00000BF00BF00BF00BF00BF00BF00BF00BFD6
:1082B00000BF00BF00BF00BF00BF00BF00BF00BFC6
:1082C00000BF00BF00BF00BF00BF00BF00BF00BFB6
:1082D00000BF00BF00BF00BF00BF00BF00BF00BFA6
:1082E00000BF00BF00BF00BF013BC3D14FF0A043A0
:1082F00059F8102C8DF82B2000274FF08052C3F82E
:1083000008250DF12B0100972B46584601222770B6
:10831000FDF7EEFE10B100F0FBBE20BF2378002B6E
:10832000FBD00A23326800BF00BF00BF00BF00BF00
:1083300000BF00BF00BF52452FD000BF00BF00BF2D
:1083400000BF00BF00BF00BF00BF00BF00BF00BF35
:1083500000BF00BF00BF00BF00BF00BF00BF00BF25
:1083600000BF00BF00BF00BF00BF00BF00BF00BF15
:1083700000BF00BF00BF00BF00BF00BF00BF00BF05
:1083800000BF00BF00BF00BF00BF00BF00BF00BFF5
:1083900000BF00BF00BF00BF00BF013BC3D14FF013
:1083A000A0422B234FF0805100278DF82A305846E9
:1083B000C2F80C152B4600970DF12A0101222770F7
:1083C000FDF796FE10B100F09FBE20BF2378002B72
:1083D000FBD00A23326800BF00BF00BF00BF00BF50
:1083E00000BF00BF00BF52452FD000BF00BF00BF7D
:1083F00000BF00BF00BF00BF00BF00BF00BF00BF85
:1084000000BF00BF00BF00BF00BF00BF00BF00BF74
:1084100000BF00BF00BF00BF00BF00BF00BF00BF64
:1084200000BF00BF00BF00BF00BF00BF00BF00BF54
:1084300000BF00BF00BF00BF00BF00BF00BF00BF44
:1084400000BF00BF00BF00BF00BF013BC3D14FF062
:10845000A04200274FF080518DF829702B46C2F8BA
:108460000815584600970DF1290101222770FDF7E4
:108470003FFE10B100F044BE20BF2378002BFBD09C
:108480000A23326800BF00BF00BF00BF00BF00BFAB
:1084900000BF00BF52452FD000BF00BF00BF00BFCC
:1084A00000BF00BF00BF00BF00BF00BF00BF00BFD4
:1084B00000BF00BF00BF00BF00BF00BF00BF00BFC4
:1084C00000BF00BF00BF00BF00BF00BF00BF00BFB4
:1084D00000BF00BF00BF00BF00BF00BF00BF00BFA4
:1084E00000BF00BF00BF00BF00BF00BF00BF00BF94
:1084F00000BF00BF00BF00BF013BC3D14FF0A0438E
:1085000059F8082C8DF8282000274FF08052C3F826
:1085100008250AA900972B46584601222770FDF727
:10852000E7FD10B100F0E8BD20BF2378002BFBD0A1
:108530000A23326800BF00BF00BF00BF00BF00BFFA
:1085400000BF00BF52452FD000BF00BF00BF00BF1B
:1085500000BF00BF00BF00BF00BF00BF00BF00BF23
:1085600000BF00BF00BF00BF00BF00BF00BF00BF13
:1085700000BF00BF00BF00BF00BF00BF00BF00BF03
:1085800000BF00BF00BF00BF00BF00BF00BF00BFF3
:1085900000BF00BF00BF00BF00BF00BF00BF00BFE3
:1085A00000BF00BF00BF00BF013BC3D14FF0A042DE
:1085B00000274FF080518DF827702B46C2F8081520
:1085C000584600970DF1270101222770FDF790FD15
:1085D00010B100F08DBD20BF2378002BFBD00A2303
:1085E000326800BF00BF00BF00BF00BF00BF00BFB8
:1085F00000BF52452FD000BF00BF00BF00BF00BF6B
:1086000000BF00BF00BF00BF00BF00BF00BF00BF72
:1086100000BF00BF00BF00BF00BF00BF00BF00BF62
:1086200000BF00BF00BF00BF00BF00BF00BF00BF52
:1086300000BF00BF00BF00BF00BF00BF00BF00BF42
:1086400000BF00BF00BF00BF00BF00BF00BF00BF32
:1086500000BF00BF00BF013BC3D14FF0A04359F89A
:10866000042C8DF8262000274FF08052C3F80825EF
:108670000DF1260100972B46584601222770FDF781
:1086800037FD10B100F030BD20BF2378002BFBD0A8
:108690000A23326800BF00BF00BF00BF00BF00BF99
:1086A00000BF00BF52452FD000BF00BF00BF00BFBA
:1086B00000BF00BF00BF00BF00BF00BF00BF00BFC2
:1086C00000BF00BF00BF00BF00BF00BF00BF00BFB2
:1086D00000BF00BF00BF00BF00BF00BF00BF00BFA2
:1086E00000BF00BF00BF00BF00BF00BF00BF00BF92
:1086F00000BF00BF00BF00BF00BF00BF00BF00BF82
:1087000000BF00BF00BF00BF013BC3D14FF0A0427C
:108710002C234FF0805100278DF825305846C2F8A1
:108720000C152B4600970DF1250101222770FDF74E
:10873000DFFC10B100F0D4BC20BF2378002BFBD0AD
:108740000A23326800BF00BF00BF00BF00BF00BFE8
:1087500000BF00BF52452FD000BF00BF00BF00BF09
:1087600000BF00BF00BF00BF00BF00BF00BF00BF11
:1087700000BF00BF00BF00BF00BF00BF00BF00BF01
:1087800000BF00BF00BF00BF00BF00BF00BF00BFF1
:1087900000BF00BF00BF00BF00BF00BF00BF00BFE1
:1087A00000BF00BF00BF00BF00BF00BF00BF00BFD1
:1087B00000BF00BF00BF00BF013BC3D103274FF084
:1087C000A041FF234FF0000C4FF080528DF8303065
:1087D0005846C1F808252B46CDF800C001220CA947
:1087E00084F800C0FDF784FC10B100F075BC20BF18
:1087F0002378002BFBD00A23326800BF00BF00BFE4
:1088000000BF00BF00BF00BF00BF52452FD000BF58
:1088100000BF00BF00BF00BF00BF00BF00BF00BF60
:1088200000BF00BF00BF00BF00BF00BF00BF00BF50
:1088300000BF00BF00BF00BF00BF00BF00BF00BF40
:1088400000BF00BF00BF00BF00BF00BF00BF00BF30
:1088500000BF00BF00BF00BF00BF00BF00BF00BF20
:1088600000BF00BF00BF00BF00BF00BF00BF013B93
:10887000C3D1013FA3D108F1FF38B8F1FF3FA9F1FF
:10888000100900F05984664B1B68013B43457FF497
:1088900097AB4FF0A0422A234FF0805100278DF86C
:1088A00023305846C2F80C152B46009701220DF1D3
:1088B00023012770FDF71CFC10B100F075BE20BF2E
:1088C0002378002BFBD00A23326800BF00BF00BF13
:1088D00000BF00BF00BF00BF00BF52452FD000BF88
:1088E00000BF00BF00BF00BF00BF00BF00BF00BF90
:1088F00000BF00BF00BF00BF00BF00BF00BF00BF80
:1089000000BF00BF00BF00BF00BF00BF00BF00BF6F
:1089100000BF00BF00BF00BF00BF00BF00BF00BF5F
:1089200000BF00BF00BF00BF00BF00BF00BF00BF4F
:1089300000BF00BF00BF00BF00BF00BF00BF013BC2
:10894000C3D14FF0A04200274FF080518DF8227024
:108950002B46C2F80815584600970DF12201012256
:108960002770FDF7C5FB10B100F03DBE20BF237896
:10897000002BFBD00A23326800BF00BF00BF00BF3E
:1089800000BF00BF00BF00BF52452FD000BF00BFD7
:1089900000BF00BF00BF00BF00BF00BF00BF00BFDF
:1089A00000BF00BF00BF00BF00BF00BF00BF00BFCF
:1089B00000BF00BF00BF00BF00BF00BF00BF00BFBF
:1089C00000BF00BF00BF00BF00BF00BF00BF00BFAF
:1089D00000BF00BF00BF00BF00BF00BF00BF00BF9F
:1089E00000BF00BF00BF00BF00BF00BF013BC3D13D
:1089F0004FF0A04359F80C2C8DF8212000274FF0A0
:108A00008052C3F808250DF1210100972B465846E6
:108A100001222770FDF76CFB28B100F0E0BD00BF1C
:108A20009421002020BF2378002BFBD00A2332683A
:108A300000BF00BF00BF00BF00BF00BF00BF00BF3E
:108A400052452FD000BF00BF00BF00BF00BF00BF16
:108A500000BF00BF00BF00BF00BF00BF00BF00BF1E
:108A600000BF00BF00BF00BF00BF00BF00BF00BF0E
:108A700000BF00BF00BF00BF00BF00BF00BF00BFFE
:108A800000BF00BF00BF00BF00BF00BF00BF00BFEE
:108A900000BF00BF00BF00BF00BF00BF00BF00BFDE
:108AA00000BF00BF013BC3D14FF0A04200274FF0F1
:108AB00080518DF820702B46C2F808155846009753
:108AC00008A901222770FDF713FB10B100F083BD48
:108AD00020BF2378002BFBD00A23326800BF00BFE1
